{
  "_format": "hh-sol-artifact-1",
  "contractName": "MyWallet",
  "sourceName": "contracts/MyWallet.sol",
  "abi": [
    {
      "inputs": [
        {
          "internalType": "contract IEntryPoint",
          "name": "anEntryPoint",
          "type": "address"
        },
        {
          "internalType": "address",
          "name": "anOwner",
          "type": "address"
        }
      ],
      "stateMutability": "nonpayable",
      "type": "constructor"
    },
    {
      "anonymous": false,
      "inputs": [
        {
          "indexed": true,
          "internalType": "address",
          "name": "oldEntryPoint",
          "type": "address"
        },
        {
          "indexed": true,
          "internalType": "address",
          "name": "newEntryPoint",
          "type": "address"
        }
      ],
      "name": "EntryPointChanged",
      "type": "event"
    },
    {
      "inputs": [],
      "name": "addDeposit",
      "outputs": [],
      "stateMutability": "payable",
      "type": "function"
    },
    {
      "inputs": [],
      "name": "entryPoint",
      "outputs": [
        {
          "internalType": "contract IEntryPoint",
          "name": "",
          "type": "address"
        }
      ],
      "stateMutability": "view",
      "type": "function"
    },
    {
      "inputs": [
        {
          "internalType": "address",
          "name": "dest",
          "type": "address"
        },
        {
          "internalType": "uint256",
          "name": "value",
          "type": "uint256"
        },
        {
          "internalType": "bytes",
          "name": "func",
          "type": "bytes"
        }
      ],
      "name": "exec",
      "outputs": [],
      "stateMutability": "nonpayable",
      "type": "function"
    },
    {
      "inputs": [
        {
          "internalType": "address[]",
          "name": "dest",
          "type": "address[]"
        },
        {
          "internalType": "bytes[]",
          "name": "func",
          "type": "bytes[]"
        }
      ],
      "name": "execBatch",
      "outputs": [],
      "stateMutability": "nonpayable",
      "type": "function"
    },
    {
      "inputs": [
        {
          "internalType": "address",
          "name": "dest",
          "type": "address"
        },
        {
          "internalType": "uint256",
          "name": "value",
          "type": "uint256"
        },
        {
          "internalType": "bytes",
          "name": "func",
          "type": "bytes"
        }
      ],
      "name": "execFromEntryPoint",
      "outputs": [],
      "stateMutability": "nonpayable",
      "type": "function"
    },
    {
      "inputs": [],
      "name": "getDeposit",
      "outputs": [
        {
          "internalType": "uint256",
          "name": "",
          "type": "uint256"
        }
      ],
      "stateMutability": "view",
      "type": "function"
    },
    {
      "inputs": [],
      "name": "lastUsedTime",
      "outputs": [
        {
          "internalType": "uint256",
          "name": "",
          "type": "uint256"
        }
      ],
      "stateMutability": "view",
      "type": "function"
    },
    {
      "inputs": [],
      "name": "nonce",
      "outputs": [
        {
          "internalType": "uint256",
          "name": "",
          "type": "uint256"
        }
      ],
      "stateMutability": "view",
      "type": "function"
    },
    {
      "inputs": [],
      "name": "owner",
      "outputs": [
        {
          "internalType": "address",
          "name": "",
          "type": "address"
        }
      ],
      "stateMutability": "view",
      "type": "function"
    },
    {
      "inputs": [],
      "name": "root",
      "outputs": [
        {
          "internalType": "uint256",
          "name": "",
          "type": "uint256"
        }
      ],
      "stateMutability": "view",
      "type": "function"
    },
    {
      "inputs": [
        {
          "internalType": "uint256",
          "name": "_root",
          "type": "uint256"
        },
        {
          "internalType": "address",
          "name": "_verifier",
          "type": "address"
        }
      ],
      "name": "setMerkleRootAndVerifier",
      "outputs": [],
      "stateMutability": "nonpayable",
      "type": "function"
    },
    {
      "inputs": [
        {
          "internalType": "address payable",
          "name": "dest",
          "type": "address"
        },
        {
          "internalType": "uint256",
          "name": "amount",
          "type": "uint256"
        }
      ],
      "name": "transfer",
      "outputs": [],
      "stateMutability": "nonpayable",
      "type": "function"
    },
    {
      "inputs": [
        {
          "internalType": "address",
          "name": "newEntryPoint",
          "type": "address"
        }
      ],
      "name": "updateEntryPoint",
      "outputs": [],
      "stateMutability": "nonpayable",
      "type": "function"
    },
    {
      "inputs": [
        {
          "components": [
            {
              "internalType": "address",
              "name": "sender",
              "type": "address"
            },
            {
              "internalType": "uint256",
              "name": "nonce",
              "type": "uint256"
            },
            {
              "internalType": "bytes",
              "name": "initCode",
              "type": "bytes"
            },
            {
              "internalType": "bytes",
              "name": "callData",
              "type": "bytes"
            },
            {
              "internalType": "uint256",
              "name": "callGasLimit",
              "type": "uint256"
            },
            {
              "internalType": "uint256",
              "name": "verificationGasLimit",
              "type": "uint256"
            },
            {
              "internalType": "uint256",
              "name": "preVerificationGas",
              "type": "uint256"
            },
            {
              "internalType": "uint256",
              "name": "maxFeePerGas",
              "type": "uint256"
            },
            {
              "internalType": "uint256",
              "name": "maxPriorityFeePerGas",
              "type": "uint256"
            },
            {
              "internalType": "bytes",
              "name": "paymasterAndData",
              "type": "bytes"
            },
            {
              "internalType": "bytes",
              "name": "signature",
              "type": "bytes"
            }
          ],
          "internalType": "struct UserOperation",
          "name": "userOp",
          "type": "tuple"
        },
        {
          "internalType": "bytes32",
          "name": "requestId",
          "type": "bytes32"
        },
        {
          "internalType": "address",
          "name": "aggregator",
          "type": "address"
        },
        {
          "internalType": "uint256",
          "name": "missingWalletFunds",
          "type": "uint256"
        }
      ],
      "name": "validateUserOp",
      "outputs": [],
      "stateMutability": "nonpayable",
      "type": "function"
    },
    {
      "inputs": [],
      "name": "verifierAddr",
      "outputs": [
        {
          "internalType": "address",
          "name": "",
          "type": "address"
        }
      ],
      "stateMutability": "view",
      "type": "function"
    },
    {
      "inputs": [
        {
          "internalType": "address payable",
          "name": "withdrawAddress",
          "type": "address"
        },
        {
          "internalType": "uint256",
          "name": "amount",
          "type": "uint256"
        }
      ],
      "name": "withdrawDepositTo",
      "outputs": [],
      "stateMutability": "nonpayable",
      "type": "function"
    },
    {
      "stateMutability": "payable",
      "type": "receive"
    }
  ],
  "bytecode": "0x6080604052600060035534801561001557600080fd5b5060405161116038038061116083398101604081905261003491610094565b600480546001600160a01b039384166001600160a01b031990911617905560008054919092166c01000000000000000000000000026001600160601b039091161790556100ce565b6001600160a01b038116811461009157600080fd5b50565b600080604083850312156100a757600080fd5b82516100b28161007c565b60208401519092506100c38161007c565b809150509250929050565b611083806100dd6000396000f3fe6080604052600436106100f75760003560e01c8063a9059cbb1161008a578063c399ec8811610059578063c399ec881461028d578063d0cb75fa146102a2578063eaaa734c146102c2578063ebf0c7171461030457600080fd5b8063a9059cbb14610211578063affed0e014610231578063b0d691fe14610259578063bf98a6e41461027757600080fd5b80634d44560d116100c65780634d44560d1461016d578063663ea2e21461018d57806380c5c7d0146101ca5780638da5cb5b146101ea57600080fd5b80630565bb67146101035780630825d1fc146101255780631b71bb6e146101455780634a58db191461016557600080fd5b366100fe57005b600080fd5b34801561010f57600080fd5b5061012361011e366004610d0d565b61031a565b005b34801561013157600080fd5b50610123610140366004610d96565b610369565b34801561015157600080fd5b50610123610160366004610dfd565b6103a3565b6101236103b7565b34801561017957600080fd5b50610123610188366004610e21565b610428565b34801561019957600080fd5b506001546101ad906001600160a01b031681565b6040516001600160a01b0390911681526020015b60405180910390f35b3480156101d657600080fd5b506101236101e5366004610d0d565b6104a4565b3480156101f657600080fd5b506000546101ad90600160601b90046001600160a01b031681565b34801561021d57600080fd5b5061012361022c366004610e21565b6104ac565b34801561023d57600080fd5b506000546001600160601b03165b6040519081526020016101c1565b34801561026557600080fd5b506004546001600160a01b03166101ad565b34801561028357600080fd5b5061024b60035481565b34801561029957600080fd5b5061024b6104ef565b3480156102ae57600080fd5b506101236102bd366004610e92565b610572565b3480156102ce57600080fd5b506101236102dd366004610efe565b600291909155600180546001600160a01b0319166001600160a01b03909216919091179055565b34801561031057600080fd5b5061024b60025481565b610322610672565b610363848484848080601f0160208091040260200160405190810160405280939291908181526020018383808284376000920191909152506106cc92505050565b50505050565b61037161073c565b61037c848484610796565b6103896040850185610f2e565b1515905061039a5761039a846108a3565b61036381610935565b6103ab610982565b6103b48161098a565b50565b60006103cb6004546001600160a01b031690565b6001600160a01b03163460405160006040518083038185875af1925050503d8060008114610415576040519150601f19603f3d011682016040523d82523d6000602084013e61041a565b606091505b50509050806103b457600080fd5b610430610672565b6004546001600160a01b031660405163040b850f60e31b81526001600160a01b03848116600483015260248201849052919091169063205c287890604401600060405180830381600087803b15801561048857600080fd5b505af115801561049c573d6000803e3d6000fd5b505050505050565b61032261073c565b6104b4610672565b6040516001600160a01b0383169082156108fc029083906000818181858888f193505050501580156104ea573d6000803e3d6000fd5b505050565b60006105036004546001600160a01b031690565b6040516370a0823160e01b81523060048201526001600160a01b0391909116906370a0823190602401602060405180830381865afa158015610549573d6000803e3d6000fd5b505050506040513d601f19601f8201168201806040525081019061056d9190610f75565b905090565b61057a610672565b8281146105c45760405162461bcd60e51b815260206004820152601360248201527277726f6e67206172726179206c656e6774687360681b60448201526064015b60405180910390fd5b60005b8381101561066b576106598585838181106105e4576105e4610f8e565b90506020020160208101906105f99190610dfd565b600085858581811061060d5761060d610f8e565b905060200281019061061f9190610f2e565b8080601f0160208091040260200160405190810160405280939291908181526020018383808284376000920191909152506106cc92505050565b8061066381610fba565b9150506105c7565b5050505050565b600054600160601b90046001600160a01b031633148061069157503330145b6106ca5760405162461bcd60e51b815260206004820152600a60248201526937b7363c9037bbb732b960b11b60448201526064016105bb565b565b600080846001600160a01b031684846040516106e89190610fd5565b60006040518083038185875af1925050503d8060008114610725576040519150601f19603f3d011682016040523d82523d6000602084013e61072a565b606091505b50915091508161066b57805160208201fd5b6004546001600160a01b031633146106ca5760405162461bcd60e51b815260206004820152601b60248201527f77616c6c65743a206e6f742066726f6d20456e747279506f696e74000000000060448201526064016105bb565b60006107ef836040517f19457468657265756d205369676e6564204d6573736167653a0a3332000000006020820152603c8101829052600090605c01604051602081830303815290604052805190602001209050919050565b905061083f610802610140860186610f2e565b8080601f01602080910402602001604051908101604052809392919081815260200183838082843760009201919091525085939250506109e69050565b600054600160601b90046001600160a01b039081169116146103635760405162461bcd60e51b815260206004820152601760248201527f77616c6c65743a2077726f6e67207369676e617475726500000000000000000060448201526064016105bb565b600080546020830135916001600160601b0390911690806108c383611010565b91906101000a8154816001600160601b0302191690836001600160601b031602179055506001600160601b0316146103b45760405162461bcd60e51b815260206004820152601560248201527477616c6c65743a20696e76616c6964206e6f6e636560581b60448201526064016105bb565b80156103b457604051600090339060001990849084818181858888f193505050503d806000811461066b576040519150601f19603f3d011682016040523d82523d6000602084013e61066b565b6106ca610672565b6004546040516001600160a01b038084169216907f450909c1478d09248269d4ad4fa8cba61ca3f50faed58c7aedefa51c7f62b83a90600090a3600480546001600160a01b0319166001600160a01b0392909216919091179055565b60008060006109f58585610a0a565b91509150610a0281610a50565b509392505050565b600080825160411415610a415760208301516040840151606085015160001a610a3587828585610c0b565b94509450505050610a49565b506000905060025b9250929050565b6000816004811115610a6457610a64611037565b1415610a6d5750565b6001816004811115610a8157610a81611037565b1415610acf5760405162461bcd60e51b815260206004820152601860248201527f45434453413a20696e76616c6964207369676e6174757265000000000000000060448201526064016105bb565b6002816004811115610ae357610ae3611037565b1415610b315760405162461bcd60e51b815260206004820152601f60248201527f45434453413a20696e76616c6964207369676e6174757265206c656e6774680060448201526064016105bb565b6003816004811115610b4557610b45611037565b1415610b9e5760405162461bcd60e51b815260206004820152602260248201527f45434453413a20696e76616c6964207369676e6174757265202773272076616c604482015261756560f01b60648201526084016105bb565b6004816004811115610bb257610bb2611037565b14156103b45760405162461bcd60e51b815260206004820152602260248201527f45434453413a20696e76616c6964207369676e6174757265202776272076616c604482015261756560f01b60648201526084016105bb565b6000807f7fffffffffffffffffffffffffffffff5d576e7357a4501ddfe92f46681b20a0831115610c425750600090506003610cef565b8460ff16601b14158015610c5a57508460ff16601c14155b15610c6b5750600090506004610cef565b6040805160008082526020820180845289905260ff881692820192909252606081018690526080810185905260019060a0016020604051602081039080840390855afa158015610cbf573d6000803e3d6000fd5b5050604051601f1901519150506001600160a01b038116610ce857600060019250925050610cef565b9150600090505b94509492505050565b6001600160a01b03811681146103b457600080fd5b60008060008060608587031215610d2357600080fd5b8435610d2e81610cf8565b935060208501359250604085013567ffffffffffffffff80821115610d5257600080fd5b818701915087601f830112610d6657600080fd5b813581811115610d7557600080fd5b886020828501011115610d8757600080fd5b95989497505060200194505050565b60008060008060808587031215610dac57600080fd5b843567ffffffffffffffff811115610dc357600080fd5b85016101608188031215610dd657600080fd5b9350602085013592506040850135610ded81610cf8565b9396929550929360600135925050565b600060208284031215610e0f57600080fd5b8135610e1a81610cf8565b9392505050565b60008060408385031215610e3457600080fd5b8235610e3f81610cf8565b946020939093013593505050565b60008083601f840112610e5f57600080fd5b50813567ffffffffffffffff811115610e7757600080fd5b6020830191508360208260051b8501011115610a4957600080fd5b60008060008060408587031215610ea857600080fd5b843567ffffffffffffffff80821115610ec057600080fd5b610ecc88838901610e4d565b90965094506020870135915080821115610ee557600080fd5b50610ef287828801610e4d565b95989497509550505050565b60008060408385031215610f1157600080fd5b823591506020830135610f2381610cf8565b809150509250929050565b6000808335601e19843603018112610f4557600080fd5b83018035915067ffffffffffffffff821115610f6057600080fd5b602001915036819003821315610a4957600080fd5b600060208284031215610f8757600080fd5b5051919050565b634e487b7160e01b600052603260045260246000fd5b634e487b7160e01b600052601160045260246000fd5b6000600019821415610fce57610fce610fa4565b5060010190565b6000825160005b81811015610ff65760208186018101518583015201610fdc565b81811115611005576000828501525b509190910192915050565b60006001600160601b038083168181141561102d5761102d610fa4565b6001019392505050565b634e487b7160e01b600052602160045260246000fdfea2646970667358221220ff1417eb64e310b2589a958fdef9a1234ecc31b49739ad30d360c62664a36de764736f6c634300080c0033",
  "linkReferences": {},
  "deployedLinkReferences": {}
}